:020000040800F2
:10000000E004002045010008E3040008DB040008C8
:10001000DF0400088D0100087708000800000000D8
:10002000000000000000000000000000490500087A
:100030009703000800000000E50400085D060008C2
:100040005F0100085F0100085F0100085F01000810
:100050005F0100085F0100085F0100085F01000800
:100060005F0100085F0100085F0100085F010008F0
:100070005F0100085F0100085F0100085F010008E0
:100080005F0100085F0100085F0100085F010008D0
:100090005F0100085F0100085F0100085F010008C0
:1000A0005F0100085F0100085F0100085F010008B0
:1000B0005F0100085F0100085F0100085F010008A0
:1000C0005F0100085F0100085F0100085F01000890
:1000D0005F010008910700085F0100085F01000848
:1000E0005F0100085F0100085F0100085F01000870
:1000F0005F0100085F0100085F0100085F01000860
:100100005F0100085F0100085F0100085F0100084F
:100110005F0100085F0100085F0100085F0100083F
:100120005F0100085F0100085F0100085F0100082F
:10013000DFF80CD000F018F800480047DD08000890
:10014000E00400200648804706480047FEE7FEE737
:10015000FEE7FEE7FEE7FEE7FEE7FEE7FEE7FEE777
:100160006106000831010008064C074D06E0E06812
:1001700040F0010394E8070098471034AC42F6D3EE
:10018000FFF7DAFF2C0900084C09000800BFFEE762
:1001900039B1084A1268012383401A43054B1A609B
:1001A00006E0044A1268012383409A43014B1A6017
:1001B000704700000074004000B585B001210420A4
:1001C00000F0B2F90121480700F09EF93020ADF8A7
:1001D000100000208DF8130004A90F4800F0F2F879
:1001E0002420009000200190022003906946002006
:1001F00000F056F86946102000F052F80121002066
:10020000FFF7C6FF01211020FFF7C2FF01211020D8
:1002100000F004F805B000BD0008014041B1094AF2
:1002200012684FF4805383401A43064B1A6007E06C
:10023000044A12684FF4805383409A43014B1A607A
:10024000704700000074004000B58BB0012102200F
:1002500000F04AF90F4800900F48019010200290DA
:1002600020200390002004908020059080000690BC
:1002700080000790202008900002099000200A903A
:100280006946064800F069F80121044800F059F871
:100290000BB000BD20740040600000204404024008
:1002A00030B5002200230A4C226840F6FE748440D8
:1002B000A243D1E900452C438D682C43CD6844EA24
:1002C000050303FA00F42243014C226030BD000014
:1002D0000074004010B50024FFF76EFF00F014F822
:1002E00000BF08E0064830F8140000EB0040054964
:1002F00041F82400641C202CF4D3FFF7A5FF10BDA7
:10030000EC080008600000200EB50121084600F04E
:10031000FBF81320ADF804000020ADF80000ADF8A4
:100320000600ADF8020069464FF0804000F0DEF9AB
:100330002021480600F0D0F90121880700F0C0F91B
:100340000EBD21B1026842F00102026004E00268C1
:100350004FF6FE731A400260704710B50022026823
:1003600047F6F0739A430C6A8B6823430C69234366
:100370004C6923438C692343CC6923434C6A234350
:100380008C6A23431A430260CB6843600B68836026
:100390004B68C36010BD704708B50121042000F010
:1003A000C3F810208DF80300C002ADF80000032050
:1003B0008DF802006946024800F004F808BD00000C
:1003C000000801402DE9F0410246002500260020EA
:1003D00000230024002791F803C00CF00F0591F8CA
:1003E00003C00CF0100CBCF1000F03D091F802C058
:1003F0004CEA050591F800C0BCF1000F31D014683B
:1004000000202BE04FF0010C0CFA00F3B1F800C013
:100410000CEA03069E4220D183004FF00F0C0CFA29
:1004200003F7BC4305FA03FC4CEA040491F803C04B
:10043000BCF1280F06D14FF0010C0CFA00FCC2F8F9
:1004400014C00AE091F803C0BCF1480F05D14FF089
:10045000010C0CFA00FCC2F810C0401C0828D1D3D3
:100460001460B1F800C0BCF1FF0F34DD5468002007
:100470002EE000F1080C4FF0010808FA0CF3B1F877
:1004800000C00CEA03069E4221D183004FF00F0CFE
:100490000CFA03F7BC4305FA03FC4CEA040491F898
:1004A00003C0BCF1280F05D100F1080C08FA0CF8C4
:1004B000C2F8148091F803C0BCF1480F07D100F1D5
:1004C000080C4FF0010808FA0CF8C2F81080401C24
:1004D0000828CED35460BDE8F08100BFFEE700BF1E
:1004E000FEE770477047000029B1064A526902438F
:1004F000044B5A6104E0034A52698243014B5A613A
:10050000704700000010024029B1064AD269024338
:10051000044BDA6104E0034AD2698243014BDA6199
:10052000704700000010024029B1064A9269024358
:10053000044B9A6104E0034A92698243014B9A6139
:100540007047000000100240704710B500F002F83C
:1005500010BD00000CB500200190009033480068E9
:1005600040F480303149086000BF3048006800F432
:10057000003000900198401C0190009818B9019833
:10058000B0F5A06FF1D12948006800F4003010B137
:100590000120009001E0002000900098012843D144
:1005A0002348006840F010002149086008460068B0
:1005B00020F0030008600846006840F00200086070
:1005C0001A4840681949486008464068486008462B
:1005D000406840F4806048600846406820F47C1021
:1005E00048600846406840F4E810486008460068E3
:1005F00040F08070086000BF0C48006800F0007098
:100600000028F9D00948406820F0030007494860F5
:100610000846406840F00200486000BF0348406858
:1006200000F00C000828F9D10CBD000000100240B9
:1006300000200240042808D14FF0E021096941F070
:1006400004014FF0E022116107E04FF0E021096959
:1006500021F004014FF0E022116170477047000063
:1006600010B51348006840F00100114908600846C1
:100670004068104908400E494860084600680E4925
:1006800008400B4908600846006820F48020086094
:100690000846406820F4FE0048604FF41F00886060
:1006A000FFF753FF4FF000600449086010BD0000E1
:1006B000001002400000FFF8FFFFF6FE08ED00E02A
:1006C00021B1028842F00102028004E002884FF664
:1006D000FE731A400280704782884FF68F731A406B
:1006E000828082880A43828070470000002202884C
:1006F0001D4B98420ED01D4B98420BD0B0F1804F4D
:1007000008D01B4B984205D01A4B984202D01A4B86
:10071000984204D14FF68F731A404B881A43174BF7
:10072000984207D0164B984204D04FF6FF431A4028
:10073000CB881A4302808B8883850B8803850A4BFC
:1007400098420BD0094B984208D00E4B984205D0E6
:100750000D4B984202D00D4B984201D10B7A038683
:100760000123838270470000002C014000340140C7
:100770000004004000080040000C00400010004051
:100780000014004000400140004401400048014086
:1007900010B540F225511D4800F03EF810B31B483B
:1007A00000F064F8C4B21A48007800F08000C8B9BC
:1007B0001748007800F0400060B10A2C03D00020F8
:1007C0001349087020E01248007840F0800010497A
:1007D000087019E00D2C06D10D48007840F040005B
:1007E0000B49087010E00A48007800F03F00094902
:1007F0000C5407480078401C0549087008460078EA
:100800003F2801DD0020087010BD000000380140C5
:10081000180000202000002070B5024600240023AC
:100820000025002040F66A16B14200D100BFC1F396
:10083000421501F01F03012606FA03F3012D02D130
:100840009689334006E0022D02D1168A334001E03A
:10085000968A33400C12012606FA04F416883440B6
:1008600013B10CB1012000E0002070BD0146888862
:10087000C0F30800704700BFFEE702E008C8121F7F
:1008800008C1002AFAD170477047002001E001C179
:10089000121F002AFBD1704710B56FF00400FFF75C
:1008A000C9FE0A4800680A49B0FBF1F0094908701E
:1008B0000846007800EB4001C1EBC0104FF6FF7115
:1008C00001EAC0000449088010BD000000000020BB
:1008D00000127A001A0000201C000020FFF7DCFF45
:1008E000FFF75AFDFFF7F6FC00BFFEE700089C0982
:1008F000280B920CCC0DCA0E810FE80FFD0FBF0F15
:100900002F0F540E360DE20B650ACF0831079B05F9
:100910001E04CA02AC01D1004100030018007F0090
:10092000360134026E03D804640600084C0900083E
:1009300000000020200000007A0800086C09000870
:1009400020000020C00400008A08000800A24A0419
:10095000000000000000000001020304060708096F
:0C0960000000000000000000000000008B
:0400000508000131BD
:00000001FF
